:020000040000FA
:020000000528D1
:06000A008501860183164A
:10001000031300309F003F308500003086008312BC
:10002000C1309F001F1540201F1914281E08303CA6
:1000300003182E281E08653C031831281E08983C1A
:10004000031834281E08CA3C031837281E08F73C3A
:1000500003183A281E08FF3C03183D28003086008C
:100060001228013086001228023086001228033040
:1000700086001228043086001228053086001228D7
:0A0080003030A000A00B4228080059
:00000001FF
