:1000000002308A00732A00000A108A100A1182073F
:1000100028340C34013406345527C1260A00C43074
:10002000F437A0326E10F33BA01EA012780500003A
:100030002D3084008313000803192B280630F800A4
:10004000F701F70B2128F80B20287B30F700F70B7E
:100050002728800B1E28080094138C113A0893005F
:100060000230941B3A288C1D332800308316111B54
:1000700001308312F80008003808003A03194428B8
:10008000013A031969288F28370EF700F030F70579
:1000900077082504B900BA002C200000370EF700BD
:1000A000F030F705770804382504B900BA002C2091
:1000B0000230F700F70B5A285D280000370EF700D2
:1000C000F030F7057708FB392504B900BA002C2079
:1000D0008F28370EF700F030F70577080138250430
:1000E000B900BA002C200000370EF700F030F705F9
:1000F0007708013804382504B900BA002C200230F2
:10010000F700F70B812884280000370EF700F03045
:10011000F705770801382504B900BA002C2008003B
:10012000831611141118922883122108BA002C206A
:10013000340EB6000F30B6053608B7003508B800E3
:100140003C2034080F39B600B7003508B8003C2011
:10015000831611151119AA28831208000130B40062
:10016000B50190200230AD0018200130A400080035
:100170002808A1002A08A2002908A3000B138B134A
:100180008B1BBF283230AD001820831611141118B4
:10019000C72883122108BA002C20B701B8013C20DF
:1001A0000F30AD0018200130AB002B08033C031CBE
:1001B000E2280330B700B8013C200530AD0018201C
:1001C000AB0AD5280230B700B8013C200530AD009D
:1001D0001820831611151119EB288312AB012B0877
:1001E000033C031CFE282B080420AC00B400B5011E
:1001F00090200530AD001820AB0AEF28AE20C030AB
:100200008B048A110A129E2AA80803190A290830A9
:10021000A5000B29A5018A110A12A12A2E08220283
:10022000031815292208AF0017292E08AF002F0840
:10023000013A03192529033A03192729013A031919
:100240002A29073A03192D293029B10131294030D3
:10025000B10031291430B10031295430B1003129B5
:10026000B1012D082302031838292308B0003A29C8
:100270002D08B000013030023107B200320880385A
:10028000B300B400B501902008002C080C3A031903
:100290005029063A03195229023A03195F296429A1
:1002A000AE206929A40A2408220203185929013022
:1002B000A4000130AD002408AE000E2169291030E1
:1002C000B400B501902069292C08B4000130B500B4
:1002D000902008000B08A8008B13831603178C17B7
:1002E0000C140000000083120313A81B8B170317C4
:1002F0000C087F390319BE290313A80003170D0842
:100300000313A90003170F080313AA002808AC0061
:100310004521290803178D0003132A0803178F00AE
:1003200003130B08AB008B13831603178C170C14E5
:100330000000000083120313AB1B8B1703170C0D77
:100340000E0D7F390319BE290313A80003170D08EA
:100350000313A90003170F080313AA002808AC0011
:100360004521290803178D0003132A0803178F005E
:100370008D0A03198F0A03136A29031703138A11BD
:100380000A12AC2A0B08A9008B13831603178C17CB
:100390000C140000000083120313A91B8B17031811
:1003A000F92903170C087F390313A90003170D0857
:1003B0000313AA0003170F080313AB002908AC00AE
:1003C00045212A0803178D0003132B0803178F00FC
:1003D00003130B08AC008B13831603178C170C1434
:1003E0000000000083120313AC1B8B17A80BF92924
:1003F000182A03170C0D0E0D7F390313A9000317DC
:100400000D080313AA0003170F080313AB002908F4
:10041000AC0045212A0803178D0003132B0803178E
:100420008F008D0A03198F0A03100313A80BC2292A
:100430008A110A12BB2AA91B2D2A0F30F700280E99
:10044000F7050A3077020318282A3030F7072A2ADE
:100450002908F7077708AC0045210F30A8050A30B6
:1004600028020318352A3030372AA9132908A8078B
:100470002808AC0045218A110A12C02A83161114DB
:100480001118402A42308312BA002C202708BA00E3
:100490002C208316111511194B2A83128A110A1266
:1004A000C92A831611141118532A41308312BA0035
:1004B0002C20F70114138316911591195D2A7718D2
:1004C0009112771C91161116111A642A83121308BF
:1004D000F8007808A7008316111511196D2A8312E8
:1004E0008A110A12D12A03081F398300FF30A000A5
:1004F000A015200883168700831220162008831673
:1005000087003130930028308312940083169417AB
:10051000141301308312A4000830A500A70183162C
:100520001F149F141F159F1183138312A6014E30B1
:10053000A8001030A9000230AA00B8280130A80095
:1005400004290130AD00AE000E210C3003178D00E0
:1005500000308F0003136A290130AD000230AE0075
:100560000E210F3003178D0000308F0003100D3067
:100570000313A800C2292708A8005730A9001B2A86
:100580000A30AC00452183168601831227088600B5
:100590003E2A0230A800FA30AD001820A80BCB2A62
:0C05A000512A3230AD001820A12A63005F
:023E00000800B8
:02400E00723FFF
:00000001FF
;PIC16F877
;CRC=3C41  CREATED="27-nov.-21 21:37"
