:1000000000308A00DA280000D437E4377310EC3768
:100010007310E234F439A030F030E730E437730580
:100020000D00D437E4377310EC377310E234F43931
:10003000A032EE316537E434E43773050D00C33781
:100040007239E936E9326E3A6F10E830E334611004
:10005000EC3020326539E531E8308A060001C337DB
:100060007239E936E9326E3A6F10E830E3346110E4
:10007000EC30A034FA38F5346539E4308A060001F2
:10008000C3377239E936E9326E3A6F10E830E3343B
:100090006110EC3020326539E531E830A032A0340F
:1000A000FA38F5346539E4308A0600014138E13325
:1000B000611079106537E3346537E4322036EF3963
:1000C0002031693A73050D0045377439613261108A
:1000D000EE37203B6136693261050D000B08A20046
:1000E0008B13831603178C170C1400000000831267
:1000F0000313A21B8B1703170C087F390319C4289D
:100100000313A20003170D080313A30003170F081E
:100110000313A40022080C1E8B2899002308031740
:100120008D000313240803178F0003130B08A50089
:100130008B13831603178C170C1400000000831216
:100140000313A51B8B1703170C0D0E0D7F39031915
:10015000C4280313A20003170D080313A3000317F9
:100160000F080313A40022080C1EB42899002308CA
:1001700003178D000313240803178F008D0A03193A
:100180008F0A03136E28031703130800233084001B
:10019000831300080319D9280630F800F701F70B7C
:1001A000CF28F80BCE287B30F700F70BD528800B33
:1001B000CC28080003081F3983008130831699007A
:1001C000A630980090308312980083161F149F1455
:1001D0001F159F11831383128C1EEC281A08A00090
:1001E0002008303C031D0B2930300C1EF5289900E7
:1001F0000A300C1EF92899000D300C1EFD289900BC
:10020000043003178D0000308F0003136E20831617
:100210008601831286012008313C031D272920080E
:100220000C1E102999000A300C1E142999000D305B
:100230000C1E18299900113003178D0000308F0013
:1002400003136E2083168601FF3083128600200878
:10025000323C031D5C2920080C1E2C2999000A3011
:100260000C1E302999000D300C1E342999001F30C6
:1002700003178D0000308F0003136E208030A10023
:10028000831686018312210886000230A200FA300C
:10029000A300C620A20B47290310A10C83168601D8
:1002A0008312210886000230A200FA30A300C62083
:1002B000A20B5529210B4C292008333C031D9329FF
:1002C00020080C1E612999000A300C1E652999002E
:1002D0000D300C1E692999002F3003178D00003056
:1002E0008F0003136E200130A10083168601831254
:1002F000210886000230A200FA30A300C620A20B1B
:100300007C292108A1078316860183122108860013
:100310000230A200FA30A300C620A20B8A292108CD
:10032000803C031D81292008343C031DE829200856
:100330000C1E982999000A300C1E9C2999000D303A
:100340000C1EA0299900403003178D0000308F004B
:1003500003136E208030A1008316860183122108CA
:1003600086000230A200FA30A300C620A20BB329F7
:100370000310A10C83168601831221088600023027
:10038000A200FA30A300C620A20BC129210BB82974
:100390000130A100831686018312210886000230F5
:1003A000A200FA30A300C620A20BD1292108A10780
:1003B000831686018312210886000230A200FA30DB
:1003C000A300C620A20BDF292108803C031DD629EB
:1003D0002008353C031D162A20080C1EED29990023
:1003E0000A300C1EF12999000D300C1EF5299900D8
:1003F000563003178D0000308F0003136E208316D4
:100400008601FF30831286000230A200FA30A3007A
:10041000C620A20B062A83168601831286010230AB
:10042000A200FA30A300C620A20B112A2008353CF6
:100430000318312A20080C1E1B2A990020300C1E9C
:100440001F2A99000A300C1E232A99000D300C1E19
:10045000272A9900643003178D0000308F000313A2
:060460006E20EC28630091
:023E00000800B8
:02400E00723FFF
:00000001FF
;PIC16F877
;CRC=8FAD  CREATED="09-nov.-21 16:09"
