:020000040000FA
:020000000528D1
:06000A00850183160313BB
:1000100000308600860106309F003F308500831245
:100020000030A4000508240603192E280130A5007D
:1000300005082506031931280230A6000508260602
:10004000031935280330A7000508270603193928A6
:100050000430A8000508280603193D280030860052
:1000600010280A308600412010280F3086004120D9
:1000700010280B308600412010280E3086004120C9
:1000800010281030A100D000A2006030A300A30B04
:0C0090004728A20B4528A10B43280800BC
:00000001FF
