:1000000002308A00502A00000A108A100A11820762
:1000100028340C34013406345527C1260A00C3376E
:100020006E3A61326F39A01EA012580500002D30C3
:1000300084008313000803192A280630F800F7010A
:10004000F70B2028F80B1F287B30F700F70B26282A
:10005000800B1D28080094138C113A08930002307D
:10006000941B39288C1D322800308316111B013057
:100070008312F80008003808003A03194328013AAF
:10008000031968288E28370EF700F030F705770837
:100090002504B900BA002B200000370EF700F0301D
:1000A000F705770804382504B900BA002B20023080
:1000B000F700F70B59285C280000370EF700F030E6
:1000C000F7057708FB392504B900BA002B208E28E4
:1000D000370EF700F030F705770801382504B9002E
:1000E000BA002B200000370EF700F030F705770834
:1000F000013804382504B900BA002B200230F7007B
:10010000F70B802883280000370EF700F030F70542
:10011000770801382504B900BA002B20080083169F
:1001200011141118912883122108BA002B20340EC3
:10013000B6000F30B6053608B7003508B8003B20CA
:1001400034080F39B600B7003508B8003B208316D5
:1001500011151119A928831208000130B400B50146
:100160008F200230AD0017200130A40008002808BD
:10017000A1002A08A2002908A3000B138B138B1BD4
:10018000BE283230AD001720831611141118C6286E
:1001900083122108BA002B20B701B8013B200F3091
:1001A000AD0017200130AB002B08033C031CE128F5
:1001B0000330B700B8013B200530AD001720AB0A73
:1001C000D4280230B700B8013B200530AD0017201D
:1001D000831611151119EA288312AB012B08033C71
:1001E000031CFD282B080420AC00B400B5018F20AF
:1001F0000530AD001720AB0AEE28AD20C0308B04CF
:100200008A110A127B2AA808031909290830A500B7
:100210000A29A5018A110A127E2A2E082202031831
:1002200014292208AF0016292E08AF002F08013A22
:1002300003192429033A03192629013A0319292904
:10024000073A03192C292F29B10130294030B10078
:1002500030291430B10030295430B1003029B101B7
:100260002D082302031837292308B00039292D0847
:10027000B000013030023107B20032088038B300DC
:10028000B400B5018F2008002C080C3A03194F293F
:10029000063A03195129023A03195E296329AD2050
:1002A0006829A40A24082202031858290130A4004E
:1002B0000130AD002408AE000D2168291030B400D3
:1002C000B5018F2068292C08B4000130B5008F20BB
:1002D00008000B08A8008B13831603178C170C1447
:1002E0000000000083120313A81B8B1703170C08D0
:1002F0007F390319BD290313A80003170D08031341
:10030000A90003170F080313AA002808AC00442112
:10031000290803178D0003132A0803178F000313FE
:100320000B08AB008B13831603178C170C140000FB
:10033000000083120313AB1B8B1703170C0D0E0D5C
:100340007F390319BD290313A80003170D080313F0
:10035000A90003170F080313AA002808AC004421C2
:10036000290803178D0003132A0803178F008D0A2D
:1003700003198F0A03136929031703138A110A1239
:10038000892A0B08A9008B13831603178C170C14EA
:100390000000000083120313A91B8B170318F82910
:1003A00003170C087F390313A90003170D08031363
:1003B000AA0003170F080313AB002908AC0044215F
:1003C0002A0803178D0003132B0803178F0003134C
:1003D0000B08AC008B13831603178C170C1400004A
:1003E000000083120313AC1B8B17A80BF829172AE4
:1003F00003170C0D0E0D7F390313A90003170D0809
:100400000313AA0003170F080313AB002908AC005D
:1004100044212A0803178D0003132B0803178F00AC
:100420008D0A03198F0A03100313A80BC1298A111F
:100430000A12982AA91B2C2A0F30F700280EF7055C
:100440000A3077020318272A3030F707292A2908AB
:10045000F7077708AC0044210F30A8050A302802BE
:100460000318342A3030362AA9132908A807280887
:10047000AC0044218A110A129D2A83161114111806
:100480003F2A42308312BA002B202708BA002B20C3
:100490008316111511194A2A83128A110A12A12AE8
:1004A00003081F398300FF30A000A0152008831621
:1004B00087008312201620088316870031309300AE
:1004C000283083129400831694171413013083127A
:1004D000A4000830A500A70183161F149F141F1540
:1004E0009F1183138312A6014E30A8001030A9007B
:1004F0000230AA00B7280130A80003290130AD005E
:10050000AE000D210C3003178D0000308F00031357
:1005100069290130AD000230AE000D210F30031704
:100520008D0000308F0003100B300313A800C12989
:100530002708A8003730A9001A2A0A30AC00442145
:100540003D2A0230A800FA30AD001720A80BA32ADC
:10055000A70A831686018312270886007E2A630075
:023E00000800B8
:02400E00723FFF
:00000001FF
;PIC16F877
;CRC=5D10  CREATED="26-nov.-21 22:47"
