:1000000003308A00EC2B0000FF00030E8301A100E7
:100010000A08A0008A010408A2007708A300780853
:10002000A4007908A5007A08A60003170D08031399
:10003000A70003170F080313A80003170C080313E6
:10004000A90003170E080313AA00831383128B1E43
:100050002B280B195A288B1D2F280B185D280B1ED7
:1000600033288B1860288C308400801E39288C1A25
:100070006328220884002308F7002408F8002508D4
:10008000F9002608FA00270803178D000313280833
:1000900003178F000313290803178C0003132A0882
:1000A00003178E00031320088A00210E8300FF0E21
:1000B0007F0E09008A110A1297288A110A12E72A6C
:1000C0008A110A125A2B8A110A120B290A108A1055
:1000D0000A11820728340C34013406340A108A10BD
:1000E0000A11820700340134023403340434053425
:1000F00006340734083409341034113412341334FC
:100100001434153416341734183419342034941335
:100110008C115D0893000230941B95288C1D8E284D
:1001200000308316111B01308312F8000800B50A55
:1001300035080F3C031DAE288316111411189E2894
:1001400042308312DD0087203608DD0087208316C9
:1001500011151119A9288312B60AB5010B118A11BC
:100160000A1239280B08CA008B13831603178C1741
:100170000C140000000083120313CA1B8B17031812
:10018000EA2803170C087F390313CA0003170D0868
:100190000313CB0003170F080313CC004A080C1EEF
:1001A000CF2899004B0803178D0003134C08031741
:1001B0008F0003130B08CD008B13831603178C17C6
:1001C0000C140000000083120313CD1B8B17C90B06
:1001D000EA280A2903170C0D0E0D7F390313CA00F4
:1001E00003170D080313CB0003170F080313CC00EC
:1001F0004A080C1EF92899004B0803178D000313B9
:100200004C0803178F008D0A03198F0A031003137C
:10021000C90BB22808008C1E0B291A08BC000A3032
:100220000C1E102999000D300C1E14299900313034
:1002300003178D0001308F00031014300313C90021
:10024000B2203C080C1E222999000A300C1E2629D7
:1002500099000D300C1E2A2999008C128A110A125D
:100260003928D3322039E5316931E937A0326C10B1
:10027000E430F4373A10A5318A0600005B08003AF2
:1002800003194629013A03196B2991295A0EF700DF
:10029000F030F70577083104DC00DD00872000002E
:1002A0005A0EF700F030F705770804383104DC0007
:1002B000DD0087200230F700F70B5C295F29000082
:1002C0005A0EF700F030F7057708FB393104DC00EF
:1002D000DD00872091295A0EF700F030F7057708E6
:1002E00001383104DC00DD00872000005A0EF700E1
:1002F000F030F7057708013804383104DC00DD0000
:1003000087200230F700F70B8329862900005A0E58
:10031000F700F030F705770801383104DC00DD0024
:100320008720080051082E02031899292E08D200B0
:100330009B295108D2005208013A0319A929033A0E
:100340000319AB29013A0319AE29073A0319B12958
:10035000B429D401B5294030D400B5291430D400D3
:10036000B5295430D400B529D40150082F02031800
:10037000BC292F08D300BE295008D30001305302F6
:100380005407D50055088038D6005608D700D80144
:10039000831611141118CA2983122D08DD00872035
:1003A000570ED9000F30D9055908DA005808DB007C
:1003B0003E2157080F39D900DA005808DB003E21EA
:1003C000831611151119E229831208005030840098
:1003D000831300080319F9290630F800F701F70B19
:1003E000EF29F80BEE297B30F700F70BF529800B8E
:1003F000EC2908004F080C3A0319052A063A03199C
:100400002B2A023A0319382A592A0130D700D80179
:100410008316111411180A2A83122D08DD00872073
:10042000570ED9000F30D9055908DA005808DB00FB
:100430003E2157080F39D900DA005808DB003E2169
:10044000831611151119222A02308312D000E621D9
:100450000130B0007A2AB00A30082E020318322A7E
:100460000130B0000130D0003008D10092217A2A4A
:100470001030D700D8018316111411183D2A8312A9
:100480002D08DD008720570ED9000F30D9055908F7
:10049000DA005808DB003E2157080F39D900DA008E
:1004A0005808DB003E21831611151119552A8312B5
:1004B0007A2A4F08D7000130D8008316111411187A
:1004C0005F2A83122D08DD008720570ED9000F30D8
:1004D000D9055908DA005808DB003E2157080F39C2
:1004E000D900DA005808DB003E21831611151119D6
:1004F000772A831208005008F8014F020318832A54
:100500004F08F7008F2AF7010830D100CF0DF70D03
:10051000500877020318F700F80DD10B862A08005F
:1005200020304A1E3030CB004908F700C91FA02AEE
:10053000F709F70A7708C9002D30CB00CA174A140B
:100540004908CF006430D0007B227708C9003030E2
:100550007807CC004908CF000A30D0007B22303029
:100560007707CE0030307807CD004B08F7003030E9
:100570004C020319BF2ACA14CA1B4A15D32A4B08B6
:10058000CC002030CB0030304D020319CB2A4A1466
:10059000CA1BCA14D32A031D4A14031DD32A4C08AC
:1005A000CD002030CC004A19DA2ACA18DD2A4A18B0
:1005B000E02AE32A4B08CF00FA214C08CF00FA21A9
:1005C0004D08CF00FA214E08CF00FA21080083160B
:1005D00006168312061E022BB80A0130D000D10085
:1005E00092214230CF00FA213430CF00FA213D3041
:1005F000CF00FA213808C9001830CA0090220A300A
:10060000CF00FA21831686168312861E1E2BB90A86
:100610000A30D0000130D10092214230CF00FA21BF
:100620003530CF00FA213D30CF00FA213908C9001A
:100630001830CA0090220A30CF00FA21831606171C
:100640008312061F3A2BBA0A0130D0000230D100C3
:1006500092214230CF00FA213630CF00FA213D30CE
:10066000CF00FA213A08C9001830CA0090220A3097
:10067000CF00FA21831686178312861F562BBB0ADA
:100680000A30D0000230D10092214230CF00FA214E
:100690003730CF00FA213D30CF00FA213B08C900A6
:1006A0001830CA0090220A30CF00FA210B108A11AC
:1006B0000A123928831606148312061CD02BB70A97
:1006C000D43003178D0003308F000310163003134E
:1006D000C900B2203708C9001830CA0020304A1EAD
:1006E0003030CB004908F700C91F7E2BF709F70A05
:1006F0007708C9002D30CB00CA174A144908CF002B
:100700006430D0007B227708C90030307807CC00F5
:100710004908CF000A30D0007B2230307707CE0066
:1007200030307807CD004B08F70030304C02031909
:100730009D2BCA14CA1B4A15B12B4B08CC00203084
:10074000CB0030304D020319A92B4A14CA1BCA141E
:10075000B12B031D4A14031DB12B4C08CD002030D2
:10076000CC004A19B82BCA18BC2B4A18C02BC42B72
:100770004B080C1EB92B99004C080C1EBD2B990080
:100780004D080C1EC12B99004E080C1EC52B99005C
:100790000A300C1EC92B99000D300C1ECD2B990070
:1007A0008B108A110A1239284536203869372021E2
:1007B0003010E830A031E136E23461326F1025327A
:1007C0008A060010BD080319E82B0830B100E92B98
:1007D000B1018A110A12F92C03081F3983008130F4
:1007E00083169900A6309800903083129800FF304D
:1007F000AC00AC152C088316870083122C162C082D
:1008000083168700313093002830831294008316BA
:100810009417141301308312B0000830B100B301F3
:10082000B401B501B601B701B801B901BA01BB0104
:1008300083161F149F141F159F1183138312B20177
:10084000810183160108C0390738810064008312D2
:100850008B1683168C1683128B150B16C0308B04E7
:100860004E30BD001030BE000230BF003D08AD006C
:100870003F08AE003E08AF000B138B138B1B3D2CC3
:10088000AB018B1BAB178B133230D000E621AB1BB7
:100890008B178316111411184B2C8312AB018B1B71
:1008A000AB178B132D08DD008720AB1B8B17AB011B
:1008B0008B1BAB178B13DA01DB013E21AB1B8B17B4
:1008C000AB018B1BAB178B130F30D000E621AB1B9A
:1008D0008B170130C0004008033C031C842CAB0183
:1008E0008B1BAB178B130330DA00DB013E21AB1BF4
:1008F0008B17AB018B1BAB178B130530D000E62198
:10090000AB1B8B17C00A6B2CAB018B1BAB178B136C
:100910000230DA00DB013E21AB1B8B17AB018B1BD6
:10092000AB178B130530D000E621AB1B8B1783165A
:1009300011151119992C8312C0014008033C031CA6
:10094000CF2C40086620C1004108D700D80183168B
:1009500011141118A92C83122D08DD008720570EC1
:10096000D9000F30D9055908DA005808DB003E21BC
:1009700057080F39D900DA005808DB003E218316EA
:1009800011151119C12C8312AB018B1BAB178B13E3
:100990000530D000E621AB1B8B17C00A9D2C01301F
:1009A000D700D801831611141118D42C83122D08E6
:1009B000DD008720570ED9000F30D9055908DA001D
:1009C0005808DB003E2157080F39D900DA005808D3
:1009D000DB003E21831611151119EC2C0230831215
:1009E000D000E6210130B000C0308B040130BD00E2
:1009F000E22B3308133C031C0A2DB408031D0A2DF7
:100A000033086E20BD008316880183123D088800DC
:100A1000B30A0C2D0130B400B30803191B2D340B9D
:100A20001B2D33086E20BD008316880183123D08FC
:0C0A30008800B3031C2DB401F92C6300F6
:023E00000800B8
:02400E00723FFF
:00000001FF
;PIC16F877
;CRC=6707  CREATED="30-nov.-21 05:49"
