:020000040000FA
:020000000528D1
:06000A008501860183164A
:10001000031300309F003F308500003086008312BC
:10002000C1309F001F1540201F1914281E08A10071
:10003000C9309F001F1540201F1914281E08A20058
:10004000D1309F001F1540201F1924281E08A3002F
:1000500021082202031C2D28322821082302031C18
:1000600037283D2822082302031C3A283D28013066
:1000700086001028023086001028033086001028E1
:0A0080003030A000A00B4228080059
:00000001FF
