:1000000006308A00412E0000FF00030E8301A1008C
:100010000A08A0008A010408A2007708A300780853
:10002000A4007908A5007A08A60003170D08031399
:10003000A70003170F080313A80003170C080313E6
:10004000A90003170E080313AA00831383128C3030
:100050008400801E2D288C1A4E2822088400230834
:10006000F7002408F8002508F9002608FA002708F8
:1000700003178D000313280803178F0003132908A3
:1000800003178C0003132A0803178E00031320089C
:100090008A00210E8300FF0E7F0E09008A110A12CA
:1000A00059280A108A100A11820728340C340134A6
:1000B00006348C1E59281A08B500CE3003178D005F
:1000C00000308F00031014300313D6000B08D70044
:1000D0008B13831603178C170C1400000000831277
:1000E0000313D71B8B1703189E2803170C087F399F
:1000F0000313D70003170D080313D80003170F08C5
:100100000313D90057080C1E8328990058080317B9
:100110008D000313590803178F0003130B08DA002F
:100120008B13831603178C170C1400000000831226
:100130000313DA1B8B17D60B9E28BE2803170C0D52
:100140000E0D7F390313D70003170D080313D800D2
:1001500003170F080313D90057080C1EAD28990088
:10016000580803178D000313590803178F008D0AD1
:1001700003198F0A03100313D60B662835080C1ECB
:10018000BF2899000A300C1EC32899000D300C1EA0
:10019000C72899008C128A110A122D28D3322039CF
:1001A000E5316931E937A0326C10E430F4373A10A8
:1001B000A5318A060000C7306239E9326C10201080
:1001C0000000CD30F2346137611020100001D637C5
:1001D0006C3A61356500D6346E1025192E196610FB
:1001E0005600C43263102010201020102000A53AC1
:1001F00020102010201020102000C832781020106D
:10020000201020102000253C20102010201020104D
:100210002000C430F43700016937F630EC34E4379D
:100220000000483084008313000803192429063095
:10023000F800F701F70B1A29F80B19297B30F700A2
:10024000F70B2029800B1729080094138C115508EF
:1002500093000230941B33298C1D2C290030831607
:10026000111B01308312F80008005308003A0319EB
:100270003D29013A031962298829520EF700F0300E
:10028000F70577083004D400D50025210000520E70
:10029000F700F030F705770804383004D400D500B3
:1002A00025210230F700F70B532956290000520E82
:1002B000F700F030F7057708FB393004D400D5009B
:1002C00025218829520EF700F030F705770801380C
:1002D0003004D400D50025210000520EF700F03084
:1002E000F7057708013804383004D400D5002521FB
:1002F0000230F700F70B7A297D290000520EF70033
:10030000F030F705770801383004D400D5002521F6
:1003100008008316111411188B2983122C08D5009C
:1003200025214F0ED1000F30D1055108D2005008C1
:10033000D30035214F080F39D100D2005008D30027
:100340003521831611151119A329831208000130D4
:10035000CF00D00189210230C80011210130AF0047
:1003600008003608AC003808AD003708AE000B13A3
:100370008B138B1BB8293230C8001121831611143E
:100380001118C02983122C08D5002521D201D301D0
:1003900035210F30C80011210130B9003908033C64
:1003A000031CDB290330D200D30135210530C800FE
:1003B0001121B90ACE290230D200D30135210530EE
:1003C000C8001121831611151119E4298312B901EE
:1003D0003908033C031CF72939085120BA00CF0023
:1003E000D00189210530C8001121B90AE829A721C7
:1003F000C0308B048A110A12792EB6080319032A19
:100400000830B000042AB0018A110A127C2E490873
:100410002D0203180E2A2D08CA00102A4908CA0006
:100420004A08013A03191E2A033A0319202A013AFD
:100430000319232A073A0319262A292ACC012A2A32
:100440004030CC002A2A1430CC002A2A5430CC0068
:100450002A2ACC0148082E020318312A2E08CB0084
:10046000332A4808CB0001304B024C07CD004D0821
:100470008038CE00CF00D0018921080047080C3A0F
:100480000319492A063A03194B2A023A0319582A32
:100490005D2AA721622AAF0A2F082D020318522ACB
:1004A0000130AF000130C8002F08C9000722622ABE
:1004B0001030CF00D0018921622A4708CF000130D7
:1004C000D000892108000B08B6008B138316031790
:1004D0008C170C140000000083120313B61B8B173B
:1004E00003170C087F390319B72A0313B600031743
:1004F0000D080313B70003170F080313B8003608DD
:10050000C7003E22370803178D000313380803176E
:100510008F0003130B08B9008B13831603178C1776
:100520000C140000000083120313B91B8B17031770
:100530000C0D0E0D7F390319B72A0313B6000317EC
:100540000D080313B70003170F080313B80036088C
:10055000C7003E22370803178D000313380803171E
:100560008F008D0A03198F0A0313632A03170313DD
:100570000800831611141118BB2A42308312D500CB
:1005800025213308D5002521831611151119C62AF6
:1005900083128A110A12BE2E8E30F7003708F80037
:1005A0003608F900FA01F808031DE02A7908F80076
:1005B000F9010830F702F808031DE02AF701E82ADC
:1005C0000310F81BE72AF90DF80DF703E02AF813DA
:1005D0008A110A12E12E36080319B02BC2003A081C
:1005E0000319B02BC202031CFA2A7F30C20703187A
:1005F000B02B002B8130C202031CB02B0319B02B8F
:100600004208F700F801F901FA01C1013708C000FA
:10061000C0173808BF003908BE001930C2003D08B5
:10062000BE020318232B0130BF020318232BC00284
:100630000318232BC1020318232BC10AC00ABF0AC7
:100640003D08BE07552B3C08BF0203183E2B013066
:10065000C00203183E2BC10203183E2BC10AC00A78
:100660003C08BF073D08BE07031C552BBF0A031DEE
:10067000552BC00A031D552BC10A552B3B0880384A
:10068000C0020318542B0130C1020318542BC10AB5
:100690003B088038C0073C08BF07031C322BC00A48
:1006A000031D322BC10A322B7A14C20B582B632B39
:1006B0000310BE0DBF0DC00DC10D0310FA0DF90DD5
:1006C000F80DC30D0F2B431C6B2B0310F80CF90C0A
:1006D000FA0CC30C6E2BF7030319B02BC31B972B1B
:1006E0000310BE0DBF0DC00DC10D3D08BE020318A5
:1006F000832B0130BF020318832BC0020318832B06
:10070000C102031CA62B3C08BF0203188E2B01302C
:10071000C00203188E2BC102031CA62B3B08803895
:10072000C0020318972B0130C102031CA62BFA0A42
:10073000031DA62BF90A031DA62BF80A031DA62BE1
:10074000F70A0319B02BF80CF90CFA0C3708C200A1
:100750003B08C206C21FAE2BF817B42BF813B42BFC
:10076000F701F801F901FA018A110A12F22E0B08B9
:10077000BB008B13831603178C170C1400000000AA
:1007800083120313BB1B8B170318EE2B03170C08E4
:100790007F390313BB0003170D080313BC000317B5
:1007A0000F080313BD003B08C7003E223C08031797
:1007B0008D0003133D0803178F0003130B08BE00C1
:1007C0008B13831603178C170C1400000000831280
:1007D0000313BE1B8B17BA0BEE2B0D2C03170C0D3E
:1007E0000E0D7F390313BB0003170D080313BC0064
:1007F00003170F080313BD003B08C7003E223C0847
:1008000003178D0003133D0803178F008D0A03198A
:100810008F0A03100313BA0BB72B08008318132C8D
:100820004F3084008313F701F801F901FA01CF0179
:10083000D001D101D2014E084D044C044B040319E0
:10084000512C2030D3000310C70DC80DC90DCA0D9F
:10085000CF0DD00DD10DD20D4E085202031D3A2CF2
:100860004D085102031D3A2C4C085002031D3A2C2E
:100870004B084F02031C4B2C4B08CF024C08031CA7
:100880004C0FD0024D08031C4D0FD1024E08031C23
:100890004E0FD2020314F70DF80DF90DFA0DD30B1C
:1008A000232C4F088000840A50088000840A5108D5
:1008B0008000840A5208800008000408BF003E0837
:1008C000C1000319EF2C3D08CA003C08C9003B08D1
:1008D000C8003A08C700CE01CD012030CC008230DC
:1008E000CB0047080319E12CCF004B080319E12C7A
:1008F000CF070318822C7F30CF02031CE12C031991
:10090000E12C862C8130CF070318E12C4F08F7002B
:10091000F801F901FA014808D300D3174908D200B9
:100920004A08D1001830CF00D001511CAF2C4E081E
:10093000FA07031CA12CF90A031DA12CF80A0319BC
:10094000D0174D08F907031CA82CF80A0319D01773
:100950004C08C900C9174908F8070318D017D00D6B
:10096000F80CF90CFA0CD30CD20CD10C0310CF0BF1
:10097000942C0130F7070318E12CF81BC62CD30D7B
:10098000FA0DF90DF80DF7030319E12CD31FD72C3D
:10099000FA0A031DD72CF90A031DD72CF80A031DE8
:1009A000D72CF80CF90CFA0CF70A0319E12C4808BB
:1009B000D0004C08D006D01FDF2CF817E52CF81318
:1009C000E52CF701F801F901FA017A08BD00790870
:1009D000BC007808BB007708BA00C10B632C3D0847
:1009E000CA003C08C9003B08C8003A08C7004708CD
:1009F000B63CC700FA014808CB00C8170310C80C62
:100A0000C90CCA0CFA0CF90CF80CF70CC70BFE2C2D
:100A1000CB1F152DF709F809F909FA09F70A031987
:100A2000F80A0319F90A0319FA0A7A08BD007908C5
:100A3000BC007808BB007708BA00BD1F2C2DBF038F
:100A4000BF16BA09BB09BC09BD09BA0A0319BB0A1A
:100A50000319BC0A0319BD0A3B30C6009A30C50011
:100A6000CA30C400C3010A30C1003E080319BF0ADE
:100A700083143A30840083133D08CA003C08C9003F
:100A80003B08C8003A08C7004608CE004508CD001C
:100A90004408CC004308CB000E247808F708031D57
:100AA000642D3E0A41020319642D3F080319662D87
:100AB0000F39410203195E2D0318962DBF1B962D89
:100AC0003F1B662D2030922D2030BF05BF1E742D98
:100AD000BF123E08031DBF037708BF002D30C700BB
:100AE0003E223F08F700BF013E084102031D822D50
:100AF0007708BF002E30C7003E223F08F7002030A5
:100B0000BF0500303030BF1E922DBF123E08031DBE
:100B1000BF037708BF002D30C7003E223F08F70013
:100B2000BF013030F7077708C7003E228310460820
:100B3000CA004508C9004408C8004308C700CE01E0
:100B4000CD01CC010A30CB000E247A08C60079080A
:100B5000C5007808C4007708C300C10B382D8A117E
:100B60000A12112F831611141118B42D413083125B
:100B7000D5002521F7011413831691159119BE2D67
:100B800077189112771C91161116111AC52D831220
:100B90001308F8007808B400831611151119CE2D2A
:100BA000831208003908F80138020318DA2D3808D2
:100BB000F700E62DF7010830BA00B80DF70D390837
:100BC00077020318F700F80DBA0BDD2D080078083E
:100BD0003608B8006430B900D2257708B600780826
:100BE0003030031DFA2DB71C012EB719012E371A0C
:100BF0002030FD2DB71137123714F8077808C700D9
:100C00003E223608B8000A30B900D2257708B6006F
:100C100078083030031D122EB719162E371C162EE9
:100C2000371A2030F8077808C7003E223030B60760
:100C30003608C7003E228A110A122E2FB71B302E0B
:100C40000F30F700360EF7050A30770203182B2E07
:100C50003030F7072D2E3708F7077708C7003E22F8
:100C60000F30B6050A3036020318382E30303A2ECF
:100C7000B7133708B6073608C7003E228A110A1292
:100C80004F2F03081F398300813083169900A63047
:100C90009800903083129800FF30AB00AB152B0802
:100CA0008316870083122B162B088316870031309A
:100CB0009300283083129400831694171413013084
:100CC0008312AF000830B000B201B101B301B4012A
:100CD00083161F149F141F159F1183138C16C03089
:100CE00083128B044E30B6001030B7000230B800CB
:100CF000B1290130B600FD2983161F109F101F1166
:100D00009F1183121F179F1783169F1783121F149B
:100D10000030F8001F08C73978049F002030F70022
:100D2000F70B902E932E00003508303A0319A52EAC
:100D3000013A0319BD2E033A0319C32E013A0319D0
:100D4000182F073A0319392F5A2F0130C800C9004C
:100D50000722DB3003178D0000308F00031363225E
:100D60000130C8000230C9000722E13003178D00AE
:100D700000308F0003136322712FB92AB30AC830E1
:100D8000C8001121712F1F151F19C42E83161E08AC
:100D90008312B1001E08B2000130C800C90007224A
:100DA000E73003178D0000308F00031363220130FA
:100DB000C8000230C90007223208B7003108B60067
:100DC000CC2A7A08B9007908B8007808B700770803
:100DD000B6009A30BD009930BC004C30BB00863064
:100DE000BA00EB2A7A08B9007908B8007808B70089
:100DF0007708B600EB3003178D0000308F0003102A
:100E000004300313BA00B723893084003908BD00C9
:100E10003808BC003708BB003608BA000230BE00F4
:100E20005D2C2030C7003E225630C7003E22712F75
:100E3000B2250130C800C9000722F13003178D0028
:100E400000308F00031363220130C8000230C90054
:100E500007223408B6001B30B700E72DF83003171F
:100E60008D0000308F00031009300313BA00B72340
:100E7000712FB2250130C800C9000722FD300317C9
:100E80008D0000308F00031363220130C800023050
:100E9000C90007223408B6005730B7001E2E0430B0
:100EA00003178D0001308F00031009300313BA00BF
:100EB000B723712F0130C800C9000722093003177A
:100EC0008D0001308F00031363220130C80002300F
:100ED000C90007220C3003178D0001308F00031367
:060EE0006322942E630062
:023E00000800B8
:02400E00723FFF
:00000001FF
;PIC16F877
;CRC=7217  CREATED="30-nov.-21 09:03"
