:020000040000FA
:020000000528D1
:06000A00850183160313BB
:1000100000308600860106309F003F308500831245
:100020000030A40005082406031935280130A50076
:1000300005082506031938280230A60005082606FB
:1000400003193B280330A700050827060319432896
:100050000430A9000508290603194B280030860042
:100060005A20FF3086005A201028003086001028C1
:10007000FF3086001028803086005A20860C5A20D7
:10008000061C3E281028013086005A20860D5A2072
:10009000861F46281028803086005A20860C5A2059
:1000A000061C4E28013086005A20860D5A20861FD5
:1000B000552810281030A100D000A2006030A30005
:0E00C000A30B6028A20B5E28A10B5C28080091
:00000001FF
