:020000040000FA
:020000000528D1
:06000A00850183160313BB
:1000100000308600860106309F003F308500831245
:100020000030A4000508240603192E280230A5007C
:1000300005082506031931280430A6000508260600
:10004000031935280830A7000508270603193928A1
:100050001630A8000508280603193D280030860040
:1000600010280C30860041201028083086004120DE
:1000700010280330860041201028023086004120DD
:1000800010281030A100D000A2006030A300A30B04
:0C0090004728A20B4528A10B43280800BC
:00000001FF
