:020000040000FA
:020000000528D1
:06000A0083160313003011
:1000100086008601181581309900181298168312EF
:10002000981718168C1E12281A08A000990083161B
:10003000981C182883124430200603192D28643098
:10004000200603192D284930200603193628693067
:1000500020060319362886011228803086000310F6
:100060003F20860C3F20031C3128122801308600D7
:1000700003103F20860D3F20031C3A2812287030C1
:10008000D1007030D2007030D300D30B4528D20B92
:080090004328D10B41280800B0
:00000001FF
