:1000000005308A00B22D0000FF00030E8301A1001D
:100010000A08A0008A010408A2007708A300780853
:10002000A4007908A5007A08A60003170D08031399
:10003000A70003170F080313A80003170C080313E6
:10004000A90003170E080313AA00831383128B1E43
:100050002B280B194C28220884002308F7002408B9
:10006000F8002508F9002608FA00270803178D0074
:100070000313280803178F000313290803178C00A4
:1000800003132A0803178E00031320088A00210E89
:100090008300FF0E7F0E09008A110A12272B0F30F2
:1000A00083160805F038880083120815000008142C
:1000B00000000808F700080E0F39F8007808D9008A
:1000C0000810000008146428652800000808F700DC
:1000D000080E0F39F8007808D80008100F30831682
:1000E000080588008312590EF700F030F7057708ED
:1000F0005804F8000800590EF039F7000F300805D1
:1001000077048800000008140230F700F70B8628F7
:1001100089280000081008008316081088100811AC
:10012000831288104F207808D800D81B9228561CBC
:100130008810561888140000081100000810570E87
:10014000D8000F30D8055808D9007B2057080F3940
:10015000D800D9007B200800530BAF28B2284030CC
:10016000D400B328D40101305202D4075408803897
:10017000D500D6015508D7008C20080052308400E5
:10018000831300080319D1280630F800F701F70B94
:10019000C728F80BC6287B30F700F70BCD28800B5B
:1001A000C42808005108073A0319E0280B3A03193C
:1001B000E528063A0319ED28023A0319F328F8282E
:1001C0000130D200D300AC20FD28D6010130D70089
:1001D0008C200230D200BE20FD280130D200023037
:1001E000D300AC20FD28D6011030D7008C20FD288C
:1001F0000130D6005108D7008C200800831803294D
:10020000593084008313F701F801F901FA01D9018B
:10021000DA01DB01DC0158085704560455040319C0
:1002200041292030DD000310D10DD20DD30DD40DA6
:10023000D90DDA0DDB0DDC0D58085C02031D2A29EF
:1002400057085B02031D2A2956085A02031D2A2952
:1002500055085902031C3B295508D9025608031CAE
:10026000560FDA025708031C570FDB025808031C0D
:10027000580FDC020314F70DF80DF90DFA0DDD0B24
:10028000132959088000840A5A088000840A5B08F0
:100290008000840A5C08800008000408C90048083F
:1002A000CB000319DF294708D4004608D3004508CE
:1002B000D2004408D100D801D7012030D6008230C6
:1002C000D50051080319D129D90055080319D1299E
:1002D000D907031872297F30D902031CD1290319C9
:1002E000D12976298130D9070318D1295908F70077
:1002F000F801F901FA015208DD00DD175308DC00AE
:100300005408DB001830D900DA015B1C9F2958081B
:10031000FA07031C9129F90A031D9129F80A031908
:10032000DA175708F907031C9829F80A0319DA178E
:100330005608D300D3175308F8070318DA17DA0D55
:10034000F80CF90CFA0CDD0CDC0CDB0C0310D90BEF
:1003500084290130F7070318D129F81BB629DD0DD0
:10036000FA0DF90DF80DF7030319D129DD1FC7297F
:10037000FA0A031DC729F90A031DC729F80A031D34
:10038000C729F80CF90CFA0CF70A0319D1295208FD
:10039000DA005608DA06DA1FCF29F817D529F8133C
:1003A000D529F701F801F901FA017A08C70079089F
:1003B000C6007808C5007708C400CB0B532947084E
:1003C000D4004608D3004508D2004408D1005108A3
:1003D000B63CD100FA015208D500D2170310D20C56
:1003E000D30CD40CFA0CF90CF80CF70CD10BEE2949
:1003F000D51F052AF709F809F909FA09F70A0319B7
:10040000F80A0319F90A0319FA0A7A08C7007908E1
:10041000C6007808C5007708C400C71F1C2AC90396
:10042000C916C409C509C609C709C40A0319C50AFA
:100430000319C60A0319C70A3B30D0009A30CF000F
:10044000CA30CE00CD010A30CB0048080319C90AD2
:1004500083144430840083134708D4004608D30033
:100460004508D2004408D1005008D8004F08D700F2
:100470004E08D6004D08D500FE207808F708031D69
:10048000542A480A4B020319542A49080319562AC8
:100490000F394B0203194E2A0318862AC91B862AD4
:1004A000491B562A2030822A2030C905C91E642AD9
:1004B000C9124808031DC9037708C9002D30D100AF
:1004C000D2204908F700C90148084B02031D722ACF
:1004D0007708C9002E30D100D2204908F70020301B
:1004E000C90500303030C91E822AC9124808031DD0
:1004F000C9037708C9002D30D100D2204908F70080
:10050000C9013030F7077708D100D2208310500896
:10051000D4004F08D3004E08D2004D08D100D801B6
:10052000D701D6010A30D500FE207A08D00079081C
:10053000CF007808CE007708CD00CB0B282A8A118F
:100540000A12B82C0B08C0008B13831603178C17E4
:100550000C140000000083120313C01B8B17031739
:100560008C080319CD2A0D080313C00003170F08C8
:100570000313C10003170C0803130C1EBD2A9900B6
:10058000400803178D000313410803178F008D0ADD
:1005900003198F0A0313A22A0317031308000B0879
:1005A000C0008B13831603178C170C140000000077
:1005B00083120313C01B8B1703170C087F39031911
:1005C000252B0313C00003170D080313C1000317E5
:1005D0000F080313C20040080C1EEC2A99004108C2
:1005E00003178D000313420803178F0003130B0832
:1005F000C3008B13831603178C170C140000000024
:1006000083120313C31B8B1703170C0D0E0D7F39B9
:100610000319252B0313C00003170D080313C10092
:1006200003170F080313C20040080C1E152B990076
:10063000410803178D000313420803178F008D0A2A
:1006400003198F0A0313CF2A031703130800AE0AF6
:100650000319AF0AB00A0319B10AB20A0319B30A9F
:100660003208133C031D3F2BB308031D3F2B831699
:100670008601831234088600B40AB301B20130083F
:10068000FB3C031DC02C3108023C031DC02C013073
:10069000D200D300AC202D08C1002C08C0008E3041
:1006A000F7004108F8004008F900FA01F808031DB6
:1006B000632B7908F800F9010830F702F808031DE8
:1006C000632BF7016B2B0310F81B6A2BF90DF80D48
:1006D000F703632BF8137A08C3007908C20078087F
:1006E000C1007708C0009A30C7009930C6004C306E
:1006F000C5008630C40040080319402CCC004408D3
:100700000319402CCC02031C8A2B7F30CC07031822
:10071000402C902B8130CC02031C402C0319402C20
:100720004C08F700F801F901FA01CB014108CA00B1
:10073000CA174208C9004308C8001930CC0047084E
:10074000C8020318B32B0130C9020318B32BCA0225
:100750000318B32BCB020318B32BCB0ACA0AC90A5E
:100760004708C807E52B4608C9020318CE2B0130FD
:10077000CA020318CE2BCB020318CE2BCB0ACA0A0F
:100780004608C9074708C807031CE52BC90A031D0B
:10079000E52BCA0A031DE52BCB0AE52B450880385B
:1007A000CA020318E42B0130CB020318E42BCB0A56
:1007B00045088038CA074608C907031CC22BCA0A65
:1007C000031DC22BCB0AC22B7A14CC0BE82BF32BC4
:1007D0000310C80DC90DCA0DCB0D0310FA0DF90D8C
:1007E000F80DCD0D9F2B4D1CFB2B0310F80CF90CB5
:1007F000FA0CCD0CFE2BF7030319402CCD1B272C34
:100800000310C80DC90DCA0DCB0D4708C802031847
:10081000132C0130C9020318132CCA020318132C1D
:10082000CB02031C362C4608C90203181E2C0130CB
:10083000CA0203181E2CCB02031C362C4508803834
:10084000CA020318272C0130CB02031C362CFA0AEB
:10085000031D362CF90A031D362CF80A031D362C0D
:10086000F70A0319402CF80CF90CFA0C4108CC00DB
:100870004508CC06CC1F3E2CF817442CF813442C0A
:10088000F701F801F901FA017A08C3007908C200FA
:100890007808C1007708C0000D3003178D000530BF
:1008A0008F00031006300313C4000B08C5008B1320
:1008B000831603178C170C14000000008312031317
:1008C000C51B8B1703188C2C03170C087F390313D7
:1008D000C50003170D080313C60003170F08031301
:1008E000C7004508D100D220460803178D00031326
:1008F000470803178F0003130B08C8008B138316D8
:1009000003178C170C140000000083120313C81B7C
:100910008B17C40B8C2CAB2C03170C0D0E0D7F39D1
:100920000313C50003170D080313C60003170F08B0
:100930000313C7004508D100D220460803178D00D5
:100940000313470803178F008D0A03198F0A03103A
:100950000313C40B552C893084004308C700420898
:10096000C6004108C5004008C4000230C8004D2937
:100970002030D100D2205630D100D220B101B001B8
:100980002E08743C031D092D2F08073C031D092D5B
:10099000143003178D0005308F000313A2222B3073
:1009A00003178D0005308F000313CF223C3003174F
:1009B0008D0005308F000313CF22493003178D00BF
:1009C00005308F000313CF22563003178D000530FA
:1009D0008F000313CF22673003178D0005308F007F
:1009E0000313A222873003178D0005308F000313F5
:1009F000CF22983003178D0005308F000313CF22CC
:100A0000A53003178D0005308F000313CF22AF01EF
:100A1000AE010B118A110A122B28D6346E103D102C
:100A200025192E1966105600473461346234723429
:100A3000693465346C34203452346F346A34613430
:100A4000733420344D34E9346E34643465347A348C
:100A50000A340D340034CE3AED32F23720326510CC
:100A6000E33A6537F4303A1020102010B318B41868
:100A7000B418B71832050D00473975386F10E432D5
:100A8000203AE537F234611D201020102010310586
:100A90000D00473975386F10E432203661316F39F7
:100AA000613A6F39E9373A1034050D00BD1EBD1E9D
:100AB000BD1EBD1EBD1EBD1EBD1EBD1EBD1EBD1E5E
:100AC000BD1EBD1EBD1EBD1EBD1E3D050D004D340F
:100AD00061347234693461346E34613420344934A1
:100AE000763465347434743465342034433461347A
:100AF000723472346534F3346E34203447347534D0
:100B00007A346D34E1346E340A340D340034CE3A24
:100B1000ED32F23720326510E33A6537F4303A109F
:100B200020102010B318B218B019B91834050D00F0
:100B3000473975386F10E432203AE537F234611DD9
:100B400020102010201034050D00473975386F1023
:100B5000E432203661316F39613A6F39E9373A1042
:100B600034050D0003081F39830081308316990076
:100B7000A6309800903083129800AF01AE01B10109
:100B8000B001B301B201B40183161F149F141F15E5
:100B90009F11831328308312B6000C30B700013048
:100BA000B8000630B9000810881008110F308316FD
:100BB000080588000810881008118312AB018B1BF0
:100BC000AB178B130F30D200BE20AB1B8B1701303D
:100BD000B5003508033C031C012EAB018B1BAB1782
:100BE0008B130330D9007B20AB1B8B17AB018B1B06
:100BF000AB178B130530D200BE20AB1B8B17B50A89
:100C0000E92DAB018B1BAB178B130230D9007B2076
:100C1000AB1B8B17AB018B1BAB178B130530D200B3
:100C2000BE20AB1B8B17B5013508033C031C2A2ED5
:100C300036303507840083130008BA00AB018B1BE4
:100C4000AB178B13D6013A08D7008C20AB1B8B1740
:100C5000B50A142E83161F109F101F119F118312A7
:100C60001F179F1783169F1783121F140030F80059
:100C70001F08C73978049F00810183160108C03915
:100C800007388100640083128B16C0308B0420303B
:100C9000F700F70B492E4C2E00001F151F194E2E82
:100CA00083161E088312AC001E08AD002030F7002A
:0C0CB000F70B582E5B2E0000472E63004F
:023E00000800B8
:02400E00723FFF
:00000001FF
;PIC16F877
;CRC=5B51  CREATED="27-nov.-21 01:27"
