:1000000001308A007E290000293084008313000813
:10001000031917280630F800F701F70B0D28F80B25
:100020000C287B30F700F70B1328800B0A280800F8
:10003000300EF039F7000F30060577048600000017
:1000400006140230F700F70B2328262800000610BC
:1000500008000608F700060E0F39F800080083169E
:10006000061086100611831286100F3083160605BF
:10007000F0388600831206150000061400002920BF
:100080007808B00006100000061446284728000033
:1000900029207808AF0006100F3083160605860069
:1000A0008312300EF700F030F70577082F04F800C0
:1000B0007808AF00AF1B35282D1C86102D1886142C
:1000C00000000611000006102E0EAF000F30AF0525
:1000D0002F08B00018202E080F39AF00B0001820EC
:1000E00008002830A3000C30A4000130A500063021
:1000F000A6000610861006110F308316060586002E
:100100000610861006110F308312A900042001305A
:10011000A2002208033C031C95280330B0001820DD
:100120000530A9000420A20A89280230B000182056
:100130000530A9000420A2012208033C031CAC28BE
:1001400023302207840083130008A700AD0127088D
:10015000AE002F20A20A9C288A110A128A292A0B93
:10016000B228B5284030AB00B628AB0101302902D7
:10017000AB072B088038AC00AD012C08AE002F2057
:1001800008002908F80128020318C9282808F700E0
:10019000D528F7010830AA00A80DF70D2908770225
:1001A0000318F700F80DAA0BCC2808002808073A16
:1001B0000319E4280B3A0319E928063A0319F12830
:1001C000023A0319F728FC280130A900AA00AF2041
:1001D0000129AD010130AE002F200230A90004201A
:1001E00001290130A9000230AA00AF200129AD0188
:1001F0001030AE002F2001290130AD002808AE00DC
:100200002F2008002030231E3030A4002208F700E1
:10021000A21F1229F709F70A7708A2002D30A400BF
:10022000A31723142208A8006430A900C12077086E
:10023000A20030307807A5002208A8000A30A900E3
:10024000C12030307707A70030307807A600240897
:10025000F7003030250203193129A314A31B2315FD
:1002600045292408A5002030A400303026020319B7
:100270003D292314A31BA3144529031D2314031D87
:1002800045292508A6002030A50023194C29A318CC
:100290004F292318522955292408A800D6202508BB
:1002A000A800D6202608A800D6202708A800D62017
:1002B0008A110A129F29A31B6D290F30F700220E05
:1002C000F7050A307702031868293030F7076A29E2
:1002D0002308F7077708A800D6200F30A2050A30B8
:1002E00022020318752930307729A3132308A207A7
:1002F0002208A800D6208A110A12AC2903081F3947
:100300008300A10183161F149F141F159F118313CF
:1003100083127128FF308316850083120508A00020
:10032000A008031D95290130A1070530A90001305F
:10033000AA00AF202108A2001830A30002294430EF
:10034000A800D6200530A9000230AA00AF2021085D
:10035000A2003730A3005B294830A800D620FA302D
:08036000A90004208A296300B2
:023E00000800B8
:02400E00723FFF
:00000001FF
;PIC16F877
;CRC=171A  CREATED="25-nov.-21 04:35"
