:1000000005308A00502D0000FF00030E8301A1007F
:100010000A08A0008A010408A2007708A300780853
:10002000A4007908A5007A08A60003170D08031399
:10003000A70003170F080313A80003170C080313E6
:10004000A90003170E080313AA00831383128B1E43
:100050002B280B194C28220884002308F7002408B9
:10006000F8002508F9002608FA00270803178D0074
:100070000313280803178F000313290803178C00A4
:1000800003132A0803178E00031320088A00210E89
:100090008300FF0E7F0E09008A110A121E2B0B0827
:1000A000BC008B13831603178C170C140000000080
:1000B00083120313BC1B8B170318872803170C0824
:1000C0007F390313BC0003170D080313BD0003178A
:1000D0000F080313BE003C080C1E6C2899003D0855
:1000E00003178D0003133E0803178F0003130B083B
:1000F000BF008B13831603178C170C14000000002D
:1001000083120313BF1B8B17BB0B8728A72803176A
:100110000C0D0E0D7F390313BC0003170D080313DC
:10012000BD0003170F080313BE003C080C1E9628E1
:1001300099003D0803178D0003133E0803178F0035
:100140008D0A03198F0A03100313BB0B4F280800F5
:10015000BC1BBB280F30F7003B0EF7050A307702B7
:100160000318B5283030F707B7283C08F707770899
:100170000C1EB82899000F30BB050A303B0203184B
:10018000C3283030C528BC133C08BB073B080C1EF5
:10019000C728990008000F3083160805F03888003A
:1001A000831208150000081400000808F700080E64
:1001B0000F39F8007808D400081000000814E0286F
:1001C000E12800000808F700080E0F39F800780849
:1001D000D30008100F308316080588008312540ED0
:1001E000F700F030F70577085304F8000800540EC4
:1001F000F039F7000F300805770488000000081474
:100200000230F700F70B022905290000081008004A
:10021000831608108810081183128810CB207808E4
:10022000D300D31B0E29511C8810511888140000CC
:10023000081100000810520ED3000F30D3055308E8
:10024000D400F72052080F39D300D400F72008005B
:100250004E0B2B292E294030CF002F29CF01013002
:100260004D02CF074F088038D000D1015008D2008E
:10027000082108004D3084008313000803194D291C
:100280000630F800F701F70B4329F80B42297B30C1
:10029000F700F70B4929800B402908004C08073A62
:1002A00003195C290B3A03196129063A03196929D4
:1002B000023A03196F2974290130CD00CE0028219C
:1002C0007929D1010130D20008210230CD003A2134
:1002D00079290130CD000230CE0028217929D101C1
:1002E0001030D200082179290130D1004C08D20009
:1002F0000821080083187F29543084008313F701F4
:10030000F801F901FA01D401D501D601D70153084A
:100310005204510450040319BD292030D8000310A1
:10032000CC0DCD0DCE0DCF0DD40DD50DD60DD70DD9
:1003300053085702031DA62952085602031DA62979
:1003400051085502031DA62950085402031CB72961
:100350005008D4025108031C510FD5025208031C47
:10036000520FD6025308031C530FD7020314F70D84
:10037000F80DF90DFA0DD80B8F2954088000840A66
:1003800055088000840A56088000840A57088000B7
:1003900008000408C4004308C60003195B2A420889
:1003A000CF004108CE004008CD003F08CC00D3016B
:1003B000D2012030D1008230D0004C0803194D2AE0
:1003C000D400500803194D2AD4070318EE297F30B2
:1003D000D402031C4D2A03194D2AF2298130D40777
:1003E00003184D2A5408F700F801F901FA014D08E5
:1003F000D800D8174E08D7004F08D6001830D400C0
:10040000D501561C1B2A5308FA07031C0D2AF90AAA
:10041000031D0D2AF80A0319D5175208F907031C02
:10042000142AF80A0319D5175108CE00CE174E0822
:10043000F8070318D517D50DF80CF90CFA0CD80CE1
:10044000D70CD60C0310D40B002A0130F707031881
:100450004D2AF81B322AD80DFA0DF90DF80DF703C5
:1004600003194D2AD81F432AFA0A031D432AF90A01
:10047000031D432AF80A031D432AF80CF90CFA0C51
:10048000F70A03194D2A4D08D5005108D506D51F86
:100490004B2AF817512AF813512AF701F801F901EC
:1004A000FA017A08C2007908C1007808C00077080C
:1004B000BF00C60BCF294208CF004108CE0040083C
:1004C000CD003F08CC004C08B63CCC00FA014D08EA
:1004D000D000CD170310CD0CCE0CCF0CFA0CF90CBC
:1004E000F80CF70CCC0B6A2AD01F812AF709F809FF
:1004F000F909FA09F70A0319F80A0319F90A03199D
:10050000FA0A7A08C2007908C1007808C0007708A2
:10051000BF00C21F982AC403C416BF09C009C1097D
:10052000C209BF0A0319C00A0319C10A0319C20A82
:100530003B30CB009A30CA00CA30C900C8010A302B
:10054000C60043080319C40A83143F308400831390
:100550004208CF004108CE004008CD003F08CC0043
:100560004B08D3004A08D2004908D1004808D000FF
:100570007A217808F708031DD02A430A4602031996
:10058000D02A44080319D22A0F3946020319CA2A6D
:100590000318022BC41B022B441BD22A2030FE2A34
:1005A0002030C405C41EE02AC4124308031DC4033E
:1005B0007708C4002D30CC004E214408F700C40158
:1005C00043084602031DEE2A7708C4002E30CC00F3
:1005D0004E214408F7002030C40500303030C41EDE
:1005E000FE2AC4124308031DC4037708C4002D303B
:1005F000CC004E214408F700C4013030F7077708DB
:10060000CC004E2183104B08CF004A08CE00490889
:10061000CD004808CC00D301D201D1010A30D0006E
:100620007A217A08CB007908CA007808C9007708CF
:10063000C800C60BA42A8A110A12232DAE0A031978
:10064000AF0A2E08FB3C031D322D2F08023C031D70
:10065000322D8316860183122C088600363003174C
:100660008D0005308F0003100A300313BB004F20AC
:10067000103084002D08BC002C08BB00C301040806
:10068000C2004310831B43143C0EF038BE00BE076B
:10069000E23EBF00323EC1003C080F39BF07BF0732
:1006A000C107E93EC000C007C0073B0E0F39C007B5
:1006B000C107C00DC10DC109C10D3B080F39C107EC
:1006C000BE0D0730BD000A30C107C003031C642BF8
:1006D000C007BF03031C682BBF07BE03031C6C2BA2
:1006E000BE07BD03031C702B3D308400831307300D
:1006F00042054213840741300402031942170008DF
:10070000F700031D8B2B421B8B2B421A932BC21914
:100710008B2B20308E2BC21542123030F707770812
:100720000C1E902B9900840A421F7B2B3C30031730
:100730008D0005308F00031412300313BB004F20CF
:100740002D08BB00D730BC00A8202C08BB005730B8
:10075000BC00A8200A300C1EAB2B99000D300C1EDB
:10076000AF2B99000130CD00CE0028212D08BC0010
:100770002C08BB008E30F7003C08F8003B08F9005D
:10078000FA01F808031DCE2B7908F800F9010830AA
:10079000F702F808031DCE2BF701D62B0310F81B28
:1007A000D52BF90DF80DF703CE2BF8137A08BE0000
:1007B0007908BD007808BC007708BB009A30C200F9
:1007C0009930C1004C30C0008630BF003B0803198F
:1007D000AB2CC7003F080319AB2CC702031CF52B39
:1007E0007F30C7070318AB2CFB2B8130C702031CDB
:1007F000AB2C0319AB2C4708F700F801F901FA01FB
:10080000C6013C08C500C5173D08C4003E08C3002A
:100810001930C7004208C30203181E2C0130C4025D
:1008200003181E2CC50203181E2CC60203181E2C0A
:10083000C60AC50AC40A4208C307502C4108C402AC
:100840000318392C0130C5020318392CC6020318CD
:10085000392CC60AC50A4108C4074208C307031C4D
:10086000502CC40A031D502CC50A031D502CC60A67
:10087000502C40088038C50203184F2C0130C602A6
:1008800003184F2CC60A40088038C5074108C40722
:10089000031C2D2CC50A031D2D2CC60A2D2C7A14E1
:1008A000C70B532C5E2C0310C30DC40DC50DC60D14
:1008B0000310FA0DF90DF80DC80D0A2C481C662C12
:1008C0000310F80CF90CFA0CC80C692CF703031987
:1008D000AB2CC81B922C0310C30DC40DC50DC60D47
:1008E0004208C30203187E2C0130C40203187E2C78
:1008F000C50203187E2CC602031CA12C4108C402A9
:100900000318892C0130C5020318892CC602031C68
:10091000A12C40088038C5020318922C0130C60271
:10092000031CA12CFA0A031DA12CF90A031DA12CFA
:10093000F80A031DA12CF70A0319AB2CF80CF90CCB
:10094000FA0C3C08C7004008C706C71FA92CF817B7
:10095000AF2CF813AF2CF701F801F901FA017A086E
:10096000BE007908BD007808BC007708BB0049309C
:1009700003178D0005308F00031006300313BF00EE
:100980000B08C0008B13831603178C170C14000080
:10099000000083120313C01B8B170318F72C0317D7
:1009A0000C087F390313C00003170D080313C1009F
:1009B00003170F080313C2004008CC004E21410862
:1009C00003178D000313420803178F0003130B084E
:1009D000C3008B13831603178C170C140000000040
:1009E00083120313C31B8B17BF0BF72C162D031792
:1009F0000C0D0E0D7F390313C00003170D080313F0
:100A0000C10003170F080313C2004008CC004E2199
:100A1000410803178D000313420803178F008D0A46
:100A200003198F0A03100313BF0BC02C89308400F5
:100A30003E08C2003D08C1003C08C0003B08BF00A2
:100A40000230C300C9292030CC004E215630CC00E2
:100A50004E210430BB00FA30CD003A21BB0B2B2DC8
:100A6000AF01AE010B118A110A122B28C432E334F4
:100A7000ED306C103D10253675162024653C613232
:100A8000E531E9366136A01E2018F81233367805B4
:100A90000D00D6346E103D1025192E196610560023
:100AA00003081F398300813083169900A63098000F
:100AB000903083129800AF01AE0183161F149F146B
:100AC0001F159F11831328308312B1000C30B20020
:100AD0000130B3000630B4000810881008110F3040
:100AE0008316080588000810881008118312AB01CE
:100AF0008B1BAB178B130F30CD003A21AB1B8B1721
:100B00000130B0003008033C031C9A2DAB018B1B55
:100B1000AB178B130330D400F720AB1B8B17AB0143
:100B20008B1BAB178B130530CD003A21AB1B8B17FA
:100B3000B00A822DAB018B1BAB178B130230D40094
:100B4000F720AB1B8B17AB018B1BAB178B1305303F
:100B5000CD003A21AB1B8B17B0013008033C031CBE
:100B6000C32D31303007840083130008B500AB017A
:100B70008B1BAB178B13D1013508D2000821AB1B9F
:100B80008B17B00AAD2D83161F109F101F119F11D8
:100B900083121F179F1783169F1783121F1400308D
:100BA000F8001F08C73978049F00810183160108E7
:100BB000C03907388100640083128B16C0308B0463
:100BC0002030F700F70BE22DE52D00001F151F194F
:100BD000E72D83161E088312AC001E08AD002030DE
:0E0BE000F700F70BF12DF42D0000E02D63005F
:023E00000800B8
:02400E00723FFF
:00000001FF
;PIC16F877
;CRC=CD5C  CREATED="27-nov.-21 01:00"
