:020000040000FA
:020000000528D1
:06000A00850183160313BB
:1000100000309F008312C1309F0083160313181510
:100020008130990018129816831298171816B0018B
:10003000B1017030B2001F15D820B001B1011F19F5
:100040001D281E08B000342039205E202E203020CC
:100050003220D820B20B1B282D282D28F830D2288A
:100060004330D2280D30D22833303002031CA02870
:100070009C2805303002031CCF280A303002031CB4
:10008000CA280F303002031CC52814303002031C6C
:10009000C02819303002031CBB281E303002031C5C
:1000A000B62824303002031CB12829303002031C4A
:1000B000AC282E303002031CA728A22804303006BA
:1000C00003196F28033030060319782802303006F0
:1000D000031981280130300603198A2893288316D2
:1000E0001E08B100B10EB10CB10CB11CA728A2289A
:1000F00083161E08B100B10EB10CB10CB11CB128B1
:10010000AC2883161E08B100B10EB10CB10CB11CA5
:10011000BB28B62883161E08B100B10EB10CB10C75
:10012000B11CC528C02883161E08B100B10EB10C41
:10013000B10CB11CCF28CA283330B0023130D228DC
:100140003030D22883122E30B0023930D2288312B8
:100150002930B0023830D22883122430B002373030
:10016000D22883121E30B0023630D22883121930C2
:10017000B0023530D22883121430B0023430D22885
:1001800083120F30B0023330D22883120A30B0020B
:100190003230D22883120530B0023130D228831297
:1001A0003030D22899008316981CD4288312080076
:0A01B0002030A100A10BDA2808009E
:00000001FF
