:1000000001308A004A290000A02ACE204D100A00A3
:10001000202349100A0026308400831300080319A6
:100020001E280630F800F701F70B1428F80B1328E8
:100030007B30F700F70B1A28800B112808002C0ED4
:10004000F039F7000F30060577048600000006142B
:100050000230F700F70B2A282D28000006100800B0
:100060000608F700060E0F39F80008008316061080
:1000700086100611831286100F3083160605F0389D
:100080008600831206150000061400003020780850
:10009000AC000610000006144D284E280000302049
:1000A0007808AB0006100F30831606058600831211
:1000B0002C0EF700F030F70577082B04F8007808CD
:1000C000AB00AB1B3C28291C8610291886140000A5
:1000D0000611000006102A0EAB000F30AB052B08EE
:1000E000AC001F202A080F39AB00AC001F2008000D
:1000F0002830A2000C30A3000130A4000630A50077
:100100000610861006110F308316060586000610AD
:10011000861006110F308312A6000B200130A100BB
:100120002108033C031C9C280330AC001F20053031
:10013000A6000B20A10A90280230AC001F20053039
:10014000A6000B20A1012108033C031CB328223088
:100150002107840083130008A600A9012608AA002D
:100160003620A10AA3288A110A125529260BB9287C
:10017000BC284030A700BD28A70101302502A707F1
:1001800027088038A800A9012808AA0036200800FE
:100190002408073A0319D6280B3A0319DB28063A34
:1001A0000319E328023A0319E928EE280130A500D3
:1001B000A600B620F328A9010130AA00362002309B
:1001C000A6000B20F3280130A5000230A600B620BF
:1001D000F328A9011030AA003620F3280130A90025
:1001E0002408AA00362008000B08A1008B138316F0
:1001F00003178C170C140000000083120313A11BBB
:100200008B1703170C087F39031948290313A10022
:1002100003170D080313A20003170F080313A3000D
:100220002108A400C820220803178D000313230807
:1002300003178F0003130B08A4008B1383160317F7
:100240008C170C140000000083120313A41B8B17DF
:1002500003170C0D0E0D7F39031948290313A10054
:1002600003170D080313A20003170F080313A300BD
:100270002108A400C820220803178D0003132308B7
:1002800003178F008D0A03198F0A0313F42803172D
:100290000313080003081F39830083161F149F14DB
:1002A0001F159F118313831278280130A500A60023
:1002B000B620043003178D0000308F000313F420A4
:1002C0000130A5000230A600B620083003178D00CB
:1002D00000308F000313F4200230A1009630A600F6
:0A02E0000B20A10B6E2955296300C5
:02400E00723FFF
:00000001FF
;PIC16F877
;CRC=B779  CREATED="09-nov.-21 14:59"
