:1000000004308A00C72C0000C432E334ED306C1099
:100010003D10253675162024653C6132E531E93600
:100020006136A01E2018F812333678050D00D6343C
:100030006E103D1025192E1966105605000034303B
:10004000840083130008031932280630F800F701F2
:10005000F70B2828F80B27287B30F700F70B2E2802
:10006000800B252808003B0EF039F7000F300805FB
:1000700077048800000008140230F700F70B3E28D0
:1000800041280000081008000808F700080E0F3982
:10009000F8000800831608108810081183128810D1
:1000A0000F3083160805F038880083120815000009
:1000B0000814000044207808BB0008100000081451
:1000C00061286228000044207808BA0008100F3028
:1000D00083160805880083123B0EF700F030F70501
:1000E00077083A04F8007808BA00BA1B5028381C80
:1000F0008810381888140000081100000810390E04
:10010000BA000F30BA053A08BB00332039080F395E
:10011000BA00BB00332008002830A3000C30A40034
:100120000130A5000630A6000810881008110F3015
:100130008316080588000810881008110F308312F4
:10014000B4001F200130A2002208033C031CB02889
:100150000330BB0033200530B4001F20A20AA428BE
:100160000230BB0033200530B4001F20A20122085A
:10017000033C031CC7282330220784008313000894
:10018000A700B8012708B9004A20A20AB7288A1197
:100190000A12DA2C0B08A3008B13831603178C1793
:1001A0000C140000000083120313A31B8B17031809
:1001B000022903170C087F390313A30003170D0846
:1001C0000313A40003170F080313A50023080C1E34
:1001D000E7289900240803178D0003132508031747
:1001E0008F0003130B08A6008B13831603178C17BD
:1001F0000C140000000083120313A61B8B17A20B24
:100200000229222903170C0D0E0D7F390313A300B9
:1002100003170D080313A40003170F080313A50009
:1002200023080C1E11299900240803178D000313BD
:10023000250803178F008D0A03198F0A0310031373
:10024000A20BCA280800AA010408A9002A10831BCF
:100250002A14230EF038A500A507E23EA600323E80
:10026000A80023080F39A607A607A807E93EA7009C
:10027000A707A707220E0F39A707A807A70DA80DE4
:10028000A809A80D22080F39A807A50D0730A4005A
:100290000A30A807A703031C4929A707A603031CC4
:1002A0004D29A607A503031C5129A507A403031C78
:1002B0005529243084008313073029052913840726
:1002C00028300402031929170008F700031D7029BC
:1002D000291B7029291A7829A91970292030732916
:1002E000A91529123030F70777080C1E75299900D7
:1002F000840A291F60298A110A12112DA31B912932
:100300000F30F700220EF7050A30770203188B2909
:100310003030F7078D292308F70777080C1E8E2940
:1003200099000F30A2050A302202031899293030B3
:100330009B29A3132308A20722080C1E9D299900BC
:100340000800350BA429A7294030B600A829B6011A
:1003500001303402B60736088038B700B8013708D4
:10036000B9004A2008008E30F7002308F800220860
:10037000F900FA01F808031DC7297908F800F90106
:100380000830F702F808031DC729F701CF29031029
:10039000F81BCE29F90DF80DF703C729F8138A11B8
:1003A0000A12362D22080319972AAE0026080319CF
:1003B000972AAE02031CE1297F30AE070318972A63
:1003C000E7298130AE02031C972A0319972A2E08C9
:1003D000F700F801F901FA01AD012308AC00AC17F0
:1003E0002408AB002508AA001930AE002908AA028B
:1003F00003180A2A0130AB0203180A2AAC020318B8
:100400000A2AAD0203180A2AAD0AAC0AAB0A290867
:10041000AA073C2A2808AB020318252A0130AC029F
:100420000318252AAD020318252AAD0AAC0A2808AC
:10043000AB072908AA07031C3C2AAB0A031D3C2A68
:10044000AC0A031D3C2AAD0A3C2A27088038AC02BE
:1004500003183B2A0130AD0203183B2AAD0A2708D6
:100460008038AC072808AB07031C192AAC0A031D07
:10047000192AAD0A192A7A14AE0B3F2A4A2A031008
:10048000AA0DAB0DAC0DAD0D0310FA0DF90DF80D65
:10049000AF0DF6292F1C522A0310F80CF90CFA0C98
:1004A000AF0C552AF7030319972AAF1B7E2A0310B6
:1004B000AA0DAB0DAC0DAD0D2908AA0203186A2ACE
:1004C0000130AB0203186A2AAC0203186A2AAD0293
:1004D000031C8D2A2808AB020318752A0130AC02D0
:1004E0000318752AAD02031C8D2A27088038AC0238
:1004F00003187E2A0130AD02031C8D2AFA0A031D5F
:100500008D2AF90A031D8D2AF80A031D8D2AF70A80
:100510000319972AF80CF90CFA0C2308AE002708E7
:10052000AE06AE1F952AF8179B2AF8139B2AF701EF
:10053000F801F901FA018A110A12472D3308073A26
:100540000319AC2A0B3A0319B12A063A0319B92A3E
:10055000023A0319BF2AC42A0130B400B500A12110
:10056000C92AB8010130B9004A200230B4001F2066
:10057000C92A0130B4000230B500A121C92AB8014E
:100580001030B9004A20C92A0130B8003308B90038
:100590004A2008000B08A7008B13831603178C173B
:1005A0000C140000000083120313A71B8B17031801
:1005B000012B03170C087F390313A70003170D083D
:1005C0000313A80003170F080313A9002708B3009B
:1005D0009E22280803178D000313290803178F0094
:1005E00003130B08AA008B13831603178C170C1424
:1005F0000000000083120313AA1B8B17A60B012B0C
:10060000202B03170C0D0E0D7F390313A7000317C2
:100610000D080313A80003170F080313A9002708E8
:10062000B3009E22280803178D000313290803171F
:100630008F008D0A03198F0A03100313A60BCA2A11
:100640008A110A12592D8318282B3B3084008313FA
:10065000F701F801F901FA01BB01BC01BD01BE01BE
:100660003A083904380437040319662B2030BF00D8
:100670000310B30DB40DB50DB60DBB0DBC0DBD0D06
:10068000BE0D3A083E02031D4F2B39083D02031DE3
:100690004F2B38083C02031D4F2B37083B02031C2D
:1006A000602B3708BB023808031C380FBC0239081E
:1006B000031C390FBD023A08031C3A0FBE02031493
:1006C000F70DF80DF90DFA0DBF0B382B3B08800024
:1006D000840A3C088000840A3D088000840A3E08A1
:1006E000800008000408AB002A08AD000319042CA0
:1006F0002908B6002808B5002708B4002608B3006A
:10070000BA01B9012030B8008230B70033080319AC
:10071000F62BBB0037080319F62BBB070318972BE2
:100720007F30BB02031CF62B0319F62B9B2B813069
:10073000BB070318F62B3B08F700F801F901FA0193
:100740003408BF00BF173508BE003608BD0018309A
:10075000BB00BC013D1CC42B3A08FA07031CB62B96
:10076000F90A031DB62BF80A0319BC173908F90753
:10077000031CBD2BF80A0319BC173808B500B517C0
:100780003508F8070318BC17BC0DF80CF90CFA0C67
:10079000BF0CBE0CBD0C0310BB0BA92B0130F7071F
:1007A0000318F62BF81BDB2BBF0DFA0DF90DF80D16
:1007B000F7030319F62BBF1FEC2BFA0A031DEC2BD2
:1007C000F90A031DEC2BF80A031DEC2BF80CF90CAD
:1007D000FA0CF70A0319F62B3408BC003808BC06DB
:1007E000BC1FF42BF817FA2BF813FA2BF701F801BA
:1007F000F901FA017A08A9007908A8007808A70089
:100800007708A600AD0B782B2908B6002808B5009C
:100810002708B4002608B3003308B63CB300FA0139
:100820003408B700B4170310B40CB50CB60CFA0CAE
:10083000F90CF80CF70CB30B132CB71F2A2CF70983
:10084000F809F909FA09F70A0319F80A0319F90A64
:100850000319FA0A7A08A9007908A8007808A700FD
:100860007708A600A91F412CAB03AB16A609A70960
:10087000A809A909A60A0319A70A0319A80A0319AE
:10088000A90A3B30B2009A30B100CA30B000AF01C3
:100890000A30AD002A080319AB0A831426308400FD
:1008A00083132908B6002808B5002708B4002608D5
:1008B000B3003208BA003108B9003008B8002F0878
:1008C000B70023237808F708031D792C2A0A2D0284
:1008D0000319792C2B0803197B2C0F392D020319CE
:1008E000732C0318AB2CAB1BAB2C2B1B7B2C20309D
:1008F000A72C2030AB05AB1E892CAB122A08031D98
:10090000AB037708AB002D30B3009E222B08F70015
:10091000AB012A082D02031D972C7708AB002E305F
:10092000B3009E222B08F7002030AB05003030309A
:10093000AB1EA72CAB122A08031DAB037708AB0034
:100940002D30B3009E222B08F700AB013030F707A3
:100950007708B3009E2283103208B6003108B50034
:100960003008B4002F08B300BA01B901B8010A3049
:10097000B70023237A08B2007908B1007808B000E4
:100980007708AF00AD0B4D2C8A110A12662D0308B3
:100990001F398300813083169900A630980090306B
:1009A0008312980083161F149F141F159F11831321
:1009B00083128C2883161F109F101F119F11831202
:1009C0001F179F1783169F1783121F140030F800FC
:1009D0001F08C73978049F002030F700F70BEE2C72
:1009E000F12C00001F151F19F32C83161E0883120B
:1009F000A0001E08A100831686018312200886002D
:100A0000043003178D0000308F0003100A300313E9
:100A1000A200CA20103084002108A3002008A200F0
:100A200023290A3003178D0000308F000314123081
:100A30000313A200CA202108A200D730A3007E2100
:100A40002008A2005730A3007E210A300C1E262D5C
:100A500099000D300C1E2A2D99000130B400B5000C
:100A6000A1212108A3002008A200B3297A08A5002B
:100A70007908A4007808A3007708A2009A30A9009A
:100A80009930A8004C30A7008630A600D2297A08F9
:100A9000A5007908A4007808A3007708A200173001
:100AA00003178D0000308F00031006300313A600DB
:100AB000CA2A893084002508A9002408A800230830
:100AC000A7002208A6000230AA00722B2030B30033
:100AD0009E225630B3009E220A30B3009E2204307C
:100AE000A200FA30B4001F20A20B712DF22C63007B
:023E00000800B8
:02400E00723FFF
:00000001FF
;PIC16F877
;CRC=7089  CREATED="25-nov.-21 01:00"
